{
  "contractName": "Ownable",
  "abi": [
    {
      "inputs": [],
      "payable": false,
      "stateMutability": "nonpayable",
      "type": "constructor"
    },
    {
      "constant": true,
      "inputs": [],
      "name": "owner",
      "outputs": [
        {
          "internalType": "address",
          "name": "",
          "type": "address"
        }
      ],
      "payable": false,
      "stateMutability": "view",
      "type": "function"
    }
  ],
  "bytecode": "0x608060405234801561001057600080fd5b50336000806101000a81548173ffffffffffffffffffffffffffffffffffffffff021916908373ffffffffffffffffffffffffffffffffffffffff16021790555060cf8061005f6000396000f3fe6080604052348015600f57600080fd5b506004361060285760003560e01c80638da5cb5b14602d575b600080fd5b60336075565b604051808273ffffffffffffffffffffffffffffffffffffffff1673ffffffffffffffffffffffffffffffffffffffff16815260200191505060405180910390f35b6000809054906101000a900473ffffffffffffffffffffffffffffffffffffffff168156fea265627a7a72315820cbfb47f7553a43120fc1877512a05179fad94de4381fb2819979470f0f26e00164736f6c63430005100032",
  "source": "pragma solidity >=0.5.0;\n\n// Exportable contract for access control\ncontract Ownable {\n    // Create a public variable called owner\n    address public owner;\n\n    // On intialization call the constructor\n    constructor() public {\n      /* Make the msg.sender the owner */\n        owner = msg.sender;\n    }\n\n    // Create a modifier that sub contracts can call\n    modifier isOwner() {\n    // Require msg.sender to be the owner otherwise show error\n    require(msg.sender == owner, \"Sorry, you are not the owner\");\n    _;\n    }\n}\n",
  "sourcePath": "/Users/dev/Development/_bootcamp/bootcamp-project/contracts/Ownable.sol",
  "compiler": {
    "name": "solc",
    "version": "0.5.16+commit.9c3226ce.Emscripten.clang"
  },
  "schemaVersion": "3.4.3",
  "updatedAt": "2021-11-30T21:41:01.162Z",
  "networkType": "ethereum",
  "devdoc": {
    "methods": {}
  },
  "userdoc": {
    "methods": {}
  }
}