{
  "contractName": "Powerballer",
  "abi": [
    {
      "constant": true,
      "inputs": [],
      "name": "owner",
      "outputs": [
        {
          "internalType": "address",
          "name": "",
          "type": "address"
        }
      ],
      "payable": false,
      "stateMutability": "view",
      "type": "function"
    },
    {
      "constant": true,
      "inputs": [
        {
          "internalType": "uint256",
          "name": "",
          "type": "uint256"
        }
      ],
      "name": "players",
      "outputs": [
        {
          "internalType": "address payable",
          "name": "",
          "type": "address"
        }
      ],
      "payable": false,
      "stateMutability": "view",
      "type": "function"
    },
    {
      "constant": false,
      "inputs": [],
      "name": "startLottery",
      "outputs": [],
      "payable": false,
      "stateMutability": "nonpayable",
      "type": "function"
    },
    {
      "constant": false,
      "inputs": [],
      "name": "enterLottery",
      "outputs": [],
      "payable": true,
      "stateMutability": "payable",
      "type": "function"
    },
    {
      "constant": false,
      "inputs": [],
      "name": "pickWinner",
      "outputs": [],
      "payable": false,
      "stateMutability": "nonpayable",
      "type": "function"
    },
    {
      "constant": true,
      "inputs": [],
      "name": "getPlayers",
      "outputs": [
        {
          "internalType": "address payable[]",
          "name": "",
          "type": "address[]"
        }
      ],
      "payable": false,
      "stateMutability": "view",
      "type": "function"
    }
  ],
  "bytecode": "0x608060405234801561001057600080fd5b5061078d806100206000396000f3fe6080604052600436106100555760003560e01c8063160344e21461005a5780635d495aea146100715780638b5b9ccc146100885780638da5cb5b146100f4578063c1af57851461014b578063f71d96cb14610155575b600080fd5b34801561006657600080fd5b5061006f6101d0565b005b34801561007d57600080fd5b50610086610212565b005b34801561009457600080fd5b5061009d61034d565b6040518080602001828103825283818151815260200191508051906020019060200280838360005b838110156100e05780820151818401526020810190506100c5565b505050509050019250505060405180910390f35b34801561010057600080fd5b506101096103db565b604051808273ffffffffffffffffffffffffffffffffffffffff1673ffffffffffffffffffffffffffffffffffffffff16815260200191505060405180910390f35b610153610400565b005b34801561016157600080fd5b5061018e6004803603602081101561017857600080fd5b810190808035906020019092919050505061058a565b604051808273ffffffffffffffffffffffffffffffffffffffff1673ffffffffffffffffffffffffffffffffffffffff16815260200191505060405180910390f35b336000806101000a81548173ffffffffffffffffffffffffffffffffffffffff021916908373ffffffffffffffffffffffffffffffffffffffff160217905550565b6000809054906101000a900473ffffffffffffffffffffffffffffffffffffffff1673ffffffffffffffffffffffffffffffffffffffff163373ffffffffffffffffffffffffffffffffffffffff161461026b57600080fd5b600060018054905061027b6105c6565b8161028257fe5b0690506001818154811061029257fe5b9060005260206000200160009054906101000a900473ffffffffffffffffffffffffffffffffffffffff1673ffffffffffffffffffffffffffffffffffffffff166108fc479081150290604051600060405180830381858888f19350505050158015610302573d6000803e3d6000fd5b5060006040519080825280602002602001820160405280156103335781602001602082028038833980820191505090505b5060019080519060200190610349929190610668565b5050565b606060018054806020026020016040519081016040528092919081815260200182805480156103d157602002820191906000526020600020905b8160009054906101000a900473ffffffffffffffffffffffffffffffffffffffff1673ffffffffffffffffffffffffffffffffffffffff1681526020019060010190808311610387575b5050505050905090565b6000809054906101000a900473ffffffffffffffffffffffffffffffffffffffff1681565b662386f26fc10000341461047c576040517f08c379a00000000000000000000000000000000000000000000000000000000081526004018080602001828103825260208152602001807f5469636b65742070726963652069732065786163746c7920302e30312045544881525060200191505060405180910390fd5b6000809054906101000a900473ffffffffffffffffffffffffffffffffffffffff1673ffffffffffffffffffffffffffffffffffffffff163373ffffffffffffffffffffffffffffffffffffffff161415610522576040517f08c379a00000000000000000000000000000000000000000000000000000000081526004018080602001828103825260238152602001806107366023913960400191505060405180910390fd5b60013390806001815401808255809150509060018203906000526020600020016000909192909190916101000a81548173ffffffffffffffffffffffffffffffffffffffff021916908373ffffffffffffffffffffffffffffffffffffffff16021790555050565b6001818154811061059757fe5b906000526020600020016000915054906101000a900473ffffffffffffffffffffffffffffffffffffffff1681565b60004442600160405160200180848152602001838152602001828054801561064357602002820191906000526020600020905b8160009054906101000a900473ffffffffffffffffffffffffffffffffffffffff1673ffffffffffffffffffffffffffffffffffffffff16815260200190600101908083116105f9575b505093505050506040516020818303038152906040528051906020012060001c905090565b8280548282559060005260206000209081019282156106e1579160200282015b828111156106e05782518260006101000a81548173ffffffffffffffffffffffffffffffffffffffff021916908373ffffffffffffffffffffffffffffffffffffffff16021790555091602001919060010190610688565b5b5090506106ee91906106f2565b5090565b61073291905b8082111561072e57600081816101000a81549073ffffffffffffffffffffffffffffffffffffffff0219169055506001016106f8565b5090565b9056fe4f776e6572206973206e6f7420616c6c6f77656420746f207061727469636970617465a265627a7a72315820997bc3203698fdcd220cc0a05594fa60ea7aa10c0771626326c899da1620f83f64736f6c63430005100032",
  "source": "pragma solidity >=0.5.0;\n\ncontract Powerballer {\n\n  // Set the variables for the two participants\n  address public owner;\n  address payable[] public players;\n\n  // Create access controll for the owner/deployer\n  modifier isOwner(){\n    require(msg.sender == owner);\n    _;\n  }\n\n  // Manually Start the lottery\n  function startLottery() public {\n    // Owner the owner create start the lottery\n    owner = msg.sender;\n  }\n\n  // Create a simple random number generator that picks a winner\n  function randomGenerator() private view returns (uint) {\n    return uint(keccak256(abi.encodePacked(block.difficulty, now, players)));\n  }\n\n  // Enable the participants to enter the lottery\n  function enterLottery() public payable {\n    // Make the ticket worth exactly 0.01 ETH\n    require(msg.value == 0.01 ether, \"Ticket price is exactly 0.01 ETH\");\n    // Prohibit the owner from particpating\n    require(msg.sender != owner, \"Owner is not allowed to participate\");\n    // If player has correct && isn't the owner then add to the players array\n    players.push(msg.sender);\n  }\n\n  // Pick the lottery winner from the array\n  function pickWinner() public isOwner {\n    // randomGenerator() picks a number no larger than the players array.length\n    uint index = randomGenerator() % players.length;\n    // Take index value, get the player of that index in the array and transfer money\n    players[index].transfer(address(this).balance);\n    // Clear the array of players\n    players = new address payable [](0);\n  }\n\n  // Get the list of players from the lottery\n  function getPlayers() public view returns (address payable[] memory) {\n    return players;\n  }\n\n}\n",
  "sourcePath": "/Users/dev/Development/_bootcamp/bootcamp-project/contracts/Powerballer.sol",
  "compiler": {
    "name": "solc",
    "version": "0.5.16+commit.9c3226ce.Emscripten.clang"
  },
  "schemaVersion": "3.4.3",
  "updatedAt": "2021-11-27T14:37:19.198Z",
  "networkType": "ethereum",
  "devdoc": {
    "methods": {}
  },
  "userdoc": {
    "methods": {}
  }
}