{
  "contractName": "Powerballer",
  "abi": [
    {
      "constant": true,
      "inputs": [],
      "name": "owner",
      "outputs": [
        {
          "internalType": "address",
          "name": "",
          "type": "address"
        }
      ],
      "payable": false,
      "stateMutability": "view",
      "type": "function"
    },
    {
      "constant": true,
      "inputs": [
        {
          "internalType": "uint256",
          "name": "",
          "type": "uint256"
        }
      ],
      "name": "players",
      "outputs": [
        {
          "internalType": "address payable",
          "name": "",
          "type": "address"
        }
      ],
      "payable": false,
      "stateMutability": "view",
      "type": "function"
    },
    {
      "constant": false,
      "inputs": [],
      "name": "startLottery",
      "outputs": [],
      "payable": false,
      "stateMutability": "nonpayable",
      "type": "function"
    },
    {
      "constant": false,
      "inputs": [],
      "name": "enterLottery",
      "outputs": [],
      "payable": true,
      "stateMutability": "payable",
      "type": "function"
    },
    {
      "constant": false,
      "inputs": [],
      "name": "pickWinner",
      "outputs": [],
      "payable": false,
      "stateMutability": "nonpayable",
      "type": "function"
    },
    {
      "constant": true,
      "inputs": [],
      "name": "getPlayers",
      "outputs": [
        {
          "internalType": "address payable[]",
          "name": "",
          "type": "address[]"
        }
      ],
      "payable": false,
      "stateMutability": "view",
      "type": "function"
    }
  ],
  "bytecode": "0x6080604052336000806101000a81548173ffffffffffffffffffffffffffffffffffffffff021916908373ffffffffffffffffffffffffffffffffffffffff1602179055506108b8806100536000396000f3fe6080604052600436106100555760003560e01c8063160344e21461005a5780635d495aea146100715780638b5b9ccc146100885780638da5cb5b146100f4578063c1af57851461014b578063f71d96cb14610155575b600080fd5b34801561006657600080fd5b5061006f6101d0565b005b34801561007d57600080fd5b506100866102d4565b005b34801561009457600080fd5b5061009d610478565b6040518080602001828103825283818151815260200191508051906020019060200280838360005b838110156100e05780820151818401526020810190506100c5565b505050509050019250505060405180910390f35b34801561010057600080fd5b50610109610506565b604051808273ffffffffffffffffffffffffffffffffffffffff1673ffffffffffffffffffffffffffffffffffffffff16815260200191505060405180910390f35b61015361052b565b005b34801561016157600080fd5b5061018e6004803603602081101561017857600080fd5b81019080803590602001909291905050506106b5565b604051808273ffffffffffffffffffffffffffffffffffffffff1673ffffffffffffffffffffffffffffffffffffffff16815260200191505060405180910390f35b6000809054906101000a900473ffffffffffffffffffffffffffffffffffffffff1673ffffffffffffffffffffffffffffffffffffffff163373ffffffffffffffffffffffffffffffffffffffff1614610292576040517f08c379a000000000000000000000000000000000000000000000000000000000815260040180806020018281038252601c8152602001807f536f7272792c20796f7520617265206e6f7420746865206f776e65720000000081525060200191505060405180910390fd5b336000806101000a81548173ffffffffffffffffffffffffffffffffffffffff021916908373ffffffffffffffffffffffffffffffffffffffff160217905550565b6000809054906101000a900473ffffffffffffffffffffffffffffffffffffffff1673ffffffffffffffffffffffffffffffffffffffff163373ffffffffffffffffffffffffffffffffffffffff1614610396576040517f08c379a000000000000000000000000000000000000000000000000000000000815260040180806020018281038252601c8152602001807f536f7272792c20796f7520617265206e6f7420746865206f776e65720000000081525060200191505060405180910390fd5b60006001805490506103a66106f1565b816103ad57fe5b069050600181815481106103bd57fe5b9060005260206000200160009054906101000a900473ffffffffffffffffffffffffffffffffffffffff1673ffffffffffffffffffffffffffffffffffffffff166108fc479081150290604051600060405180830381858888f1935050505015801561042d573d6000803e3d6000fd5b50600060405190808252806020026020018201604052801561045e5781602001602082028038833980820191505090505b5060019080519060200190610474929190610793565b5050565b606060018054806020026020016040519081016040528092919081815260200182805480156104fc57602002820191906000526020600020905b8160009054906101000a900473ffffffffffffffffffffffffffffffffffffffff1673ffffffffffffffffffffffffffffffffffffffff16815260200190600101908083116104b2575b5050505050905090565b6000809054906101000a900473ffffffffffffffffffffffffffffffffffffffff1681565b662386f26fc1000034146105a7576040517f08c379a00000000000000000000000000000000000000000000000000000000081526004018080602001828103825260208152602001807f5469636b65742070726963652069732065786163746c7920302e30312045544881525060200191505060405180910390fd5b6000809054906101000a900473ffffffffffffffffffffffffffffffffffffffff1673ffffffffffffffffffffffffffffffffffffffff163373ffffffffffffffffffffffffffffffffffffffff16141561064d576040517f08c379a00000000000000000000000000000000000000000000000000000000081526004018080602001828103825260238152602001806108616023913960400191505060405180910390fd5b60013390806001815401808255809150509060018203906000526020600020016000909192909190916101000a81548173ffffffffffffffffffffffffffffffffffffffff021916908373ffffffffffffffffffffffffffffffffffffffff16021790555050565b600181815481106106c257fe5b906000526020600020016000915054906101000a900473ffffffffffffffffffffffffffffffffffffffff1681565b60004442600160405160200180848152602001838152602001828054801561076e57602002820191906000526020600020905b8160009054906101000a900473ffffffffffffffffffffffffffffffffffffffff1673ffffffffffffffffffffffffffffffffffffffff1681526020019060010190808311610724575b505093505050506040516020818303038152906040528051906020012060001c905090565b82805482825590600052602060002090810192821561080c579160200282015b8281111561080b5782518260006101000a81548173ffffffffffffffffffffffffffffffffffffffff021916908373ffffffffffffffffffffffffffffffffffffffff160217905550916020019190600101906107b3565b5b509050610819919061081d565b5090565b61085d91905b8082111561085957600081816101000a81549073ffffffffffffffffffffffffffffffffffffffff021916905550600101610823565b5090565b9056fe4f776e6572206973206e6f7420616c6c6f77656420746f207061727469636970617465a265627a7a7231582046cc8e3fbab48c52207ae42130312bd8289534be8541622a77e9e5e2924724c864736f6c63430005100032",
  "source": "pragma solidity >=0.5.0;\nimport  \"./Ownable.sol\";\n\n// Inherits from the Ownable contract for access control\ncontract Powerballer is Ownable {\n\n  // Set the variables for the two participants\n  address payable[] public players;\n\n  // Manually Start the lottery\n  function startLottery() public isOwner {\n    // Owner the owner create start the lottery\n    owner = msg.sender;\n  }\n\n  // Create a simple random number generator that picks a winner\n  function randomGenerator() private view returns (uint) {\n    return uint(keccak256(abi.encodePacked(block.difficulty, now, players)));\n  }\n\n  // Enable the participants to enter the lottery\n  function enterLottery() public payable {\n    // Make the ticket worth exactly 0.01 ETH\n    require(msg.value == 0.01 ether, \"Ticket price is exactly 0.01 ETH\");\n    // Prohibit the owner from particpating\n    require(msg.sender != owner, \"Owner is not allowed to participate\");\n    // If player has correct && isn't the owner then add to the players array\n    players.push(msg.sender);\n  }\n\n  // Pick the lottery winner from the array\n  function pickWinner() public isOwner {\n    // randomGenerator() picks a number no larger than the players array.length\n    uint index = randomGenerator() % players.length;\n    // Take index value, get the player of that index in the array and transfer money\n    players[index].transfer(address(this).balance);\n    // Reset the list of players array\n    players = new address payable [](0);\n  }\n\n  // Get the list of players from the lottery\n  function getPlayers() public view returns (address payable[] memory) {\n    return players;\n  }\n\n}\n",
  "sourcePath": "/Users/dev/Development/_bootcamp/bootcamp-project/contracts/Powerballer.sol",
  "compiler": {
    "name": "solc",
    "version": "0.5.16+commit.9c3226ce.Emscripten.clang"
  },
  "schemaVersion": "3.4.3",
  "updatedAt": "2021-11-30T20:18:29.401Z",
  "devdoc": {
    "methods": {}
  },
  "userdoc": {
    "methods": {}
  }
}